{
  "Title": "no main UTXO with single witness deposit",
  "WalletPublicKey": "04989d253b17a6a0f41838b84ff0d20e8898f9d7b1a98f2564da4cc29dcf8581d9d218b65e7d91c752f7b22eaceb771a9af3a6f3d3f010a5d471a1aeef7d7713af",
  "WalletPrivateKey": "7c246a5d2fcf476fd6f805cb8174b1cf441b13ea414e5560ca2bdc963aeb7d0c",
  "Deposits": [
    {
      "Utxo": {
        "Outpoint": {
          "TransactionHash": "c1082c460527079a84e39ec6481666db72e5a22e473a78db03b996d26fd1dc83",
          "OutputIndex": 0
        },
        "Value": 80000
      },
      "Depositor": "f4292022F75ADD9b079b0573d0FD63C376a85F41",
      "BlindingFactor": "b0bb0e4d6083951d",
      "WalletPublicKeyHash": "8db50eb52063ea9d98b3eac91489a90f738986f6",
      "RefundPublicKeyHash": "056514a7032b0b486e56a607fb434756c61d1f74",
      "RefundLocktime": "38421962",
      "Vault": ""
    }
  ],
  "InputTransactions": [
    "0100000000010189f12fac482d2b036f74378a9c9af7ab17bcc963d4172cec78d01750dd1b13e20100000000ffffffff028038010000000000220020ef0b4d985752aa5ef6243e4c6f6bebc2a007e7d671ef27d4b1d0db8dcc93bc1c7ad42900000000001600147ac2d9378a1c47e589dfb8095ca95ed2140d27260247304402205e28ad48e4b128ce8b30dae8c98c8422a5a1e9aa079c0aa9d21cae999831851d02204603961ea369acfdff28a5fee1b095a9ee6a338d5c13cf8775023418e1e7c4d8012102ee067a0273f2e3ba88d23140a24fdb290f27bbcd0f94117a9c65be3911c5c04e00000000"
  ],
  "Fee": 2000,
  "Signatures": [
    {
      "R": "bcb5b2fa3fab8d24d5ef4f601d6bc0374319162b0f534e905ffaec7abee1c699",
      "S": "2c25189466157797cdc5ec5049f7a2122afb89be49172f3b8c176a0bc6caf028"
    }
  ],
  "ExpectedSigHashes": [
    "7e02a4100a21d005baaf9d83dea35495c105eb44b54cac1847257a7f381a8024"
  ],
  "ExpectedSweepTransaction": "0100000000010183dcd16fd296b903db783a472ea2e572db661648c69ee3849a072705462c08c10000000000ffffffff01b0300100000000001600148db50eb52063ea9d98b3eac91489a90f738986f603483045022100bcb5b2fa3fab8d24d5ef4f601d6bc0374319162b0f534e905ffaec7abee1c69902202c25189466157797cdc5ec5049f7a2122afb89be49172f3b8c176a0bc6caf028012103989d253b17a6a0f41838b84ff0d20e8898f9d7b1a98f2564da4cc29dcf8581d95c14f4292022f75add9b079b0573d0fd63c376a85f417508b0bb0e4d6083951d7576a9148db50eb52063ea9d98b3eac91489a90f738986f68763ac6776a914056514a7032b0b486e56a607fb434756c61d1f74880438421962b175ac6800000000",
  "ExpectedSweepTransactionHash": "9efc9d555233e12e06378a35a7b988d54f7043b5c3156adc79c7af0a0fd6f1a0",
  "ExpectedSweepTransactionWitnessHash": "ce9d76c1969ac7b32f33693a78d0de24ac0d4b260339c6b0c41952c10489a886"
}
