{
  "Title": "no main UTXO with single non-witness deposit",
  "WalletPublicKey": "04989d253b17a6a0f41838b84ff0d20e8898f9d7b1a98f2564da4cc29dcf8581d9d218b65e7d91c752f7b22eaceb771a9af3a6f3d3f010a5d471a1aeef7d7713af",
  "WalletPrivateKey": "7c246a5d2fcf476fd6f805cb8174b1cf441b13ea414e5560ca2bdc963aeb7d0c",
  "Deposits": [
    {
      "Utxo": {
        "Outpoint": {
          "TransactionHash": "c580e0e352570d90e303d912a506055ceeb0ee06f97dce6988c69941374f5479",
          "OutputIndex": 0
        },
        "Value": 20000
      },
      "Depositor": "934b98637ca318a4d6e7ca6ffd1690b8e77df637",
      "BlindingFactor": "f9f0c90d00039523",
      "WalletPublicKeyHash": "8db50eb52063ea9d98b3eac91489a90f738986f6",
      "RefundPublicKeyHash": "e257eccafbc07c381642ce6e7e55120fb077fbed",
      "RefundLocktime": "e0250162",
      "Vault": ""
    }
  ],
  "InputTransactions": [
    "01000000011d9b71144a3ddbb56dd099ee94e6dd8646d7d1eb37fe1195367e6fa844a388e7010000006a47304402206f8553c07bcdc0c3b906311888103d623ca9096ca0b28b7d04650a029a01fcf9022064cda02e39e65ace712029845cfcf58d1b59617d753c3fd3556f3551b609bbb00121039d61d62dcd048d3f8550d22eb90b4af908db60231d117aeede04e7bc11907bfaffffffff02204e00000000000017a9143ec459d0f3c29286ae5df5fcc421e2786024277e87a6c2140000000000160014e257eccafbc07c381642ce6e7e55120fb077fbed00000000"
  ],
  "Fee": 1500,
  "Signatures": [
    {
      "R": "5eff3ae003a5903eb33f32737e3442b6516685a1addb19339c2d02d400cf67ce",
      "S": "707435fc2a0577373c63c99d242c30bea5959ec180169978d43ece50618fe0ff"
    }
  ],
  "ExpectedSigHashes": [
    "05e260a69c833dbc5ed7afc5219e2de75a154bb96e7d06b4e1d0f0086ef63b36"
  ],
  "ExpectedSweepTransaction": "010000000179544f374199c68869ce7df906eeb0ee5c0506a512d903e3900d5752e3e080c500000000c847304402205eff3ae003a5903eb33f32737e3442b6516685a1addb19339c2d02d400cf67ce0220707435fc2a0577373c63c99d242c30bea5959ec180169978d43ece50618fe0ff012103989d253b17a6a0f41838b84ff0d20e8898f9d7b1a98f2564da4cc29dcf8581d94c5c14934b98637ca318a4d6e7ca6ffd1690b8e77df6377508f9f0c90d000395237576a9148db50eb52063ea9d98b3eac91489a90f738986f68763ac6776a914e257eccafbc07c381642ce6e7e55120fb077fbed8804e0250162b175ac68ffffffff0144480000000000001600148db50eb52063ea9d98b3eac91489a90f738986f600000000",
  "ExpectedSweepTransactionHash": "f5b9ad4e8cd5317925319ebc64dc923092bef3b56429c6b1bc2261bbdc73f351",
  "ExpectedSweepTransactionWitnessHash": "f5b9ad4e8cd5317925319ebc64dc923092bef3b56429c6b1bc2261bbdc73f351"
}
