{
  "Title": "no main UTXO with witness and non-witness deposits",
  "WalletPublicKey": "04989d253b17a6a0f41838b84ff0d20e8898f9d7b1a98f2564da4cc29dcf8581d9d218b65e7d91c752f7b22eaceb771a9af3a6f3d3f010a5d471a1aeef7d7713af",
  "WalletPrivateKey": "7c246a5d2fcf476fd6f805cb8174b1cf441b13ea414e5560ca2bdc963aeb7d0c",
  "Deposits": [
    {
      "Utxo": {
        "Outpoint": {
          "TransactionHash": "74d0e353cdba99a6c17ce2cfeab62a26c09b5eb756eccdcfb83dbc12e67b18bc",
          "OutputIndex": 0
        },
        "Value": 25000
      },
      "Depositor": "934b98637ca318a4d6e7ca6ffd1690b8e77df637",
      "BlindingFactor": "f9f0c90d00039523",
      "WalletPublicKeyHash": "8db50eb52063ea9d98b3eac91489a90f738986f6",
      "RefundPublicKeyHash": "e257eccafbc07c381642ce6e7e55120fb077fbed",
      "RefundLocktime": "e0250162",
      "Vault": ""
    },
    {
      "Utxo": {
        "Outpoint": {
          "TransactionHash": "5c54ecdf946382fab2236f78423ddc22a757776fb8492671c588667b737e55dc",
          "OutputIndex": 0
        },
        "Value": 12000
      },
      "Depositor": "934b98637ca318a4d6e7ca6ffd1690b8e77df637",
      "BlindingFactor": "f9f0c90d00039523",
      "WalletPublicKeyHash": "8db50eb52063ea9d98b3eac91489a90f738986f6",
      "RefundPublicKeyHash": "e257eccafbc07c381642ce6e7e55120fb077fbed",
      "RefundLocktime": "e0250162",
      "Vault": ""
    }
  ],
  "InputTransactions": [
    "01000000000101d9fdf44eb0874a31a462dc0aedce55c0b5be6d20956b4cdfbe1c16761f7c4aa60100000000ffffffff02a86100000000000017a9143ec459d0f3c29286ae5df5fcc421e2786024277e8716a1110000000000160014e257eccafbc07c381642ce6e7e55120fb077fbed0247304402204e779706c5134032f6be73633a4d32de084154a7fd16c82810325584eea6406a022068bf855004476b8776f5a902a4d518a486ff7ebc6dc12fc31cd94e3e9b4220bb0121039d61d62dcd048d3f8550d22eb90b4af908db60231d117aeede04e7bc11907bfa00000000",
    "01000000000101a0367a0790e3dfc199df34ca9ce5c35591510b6525d2d5869166728a5ed554be0100000000ffffffff02e02e00000000000022002086a303cdd2e2eab1d1679f1a813835dc5a1b65321077cdccaf08f98cbf04ca962c2c110000000000160014e257eccafbc07c381642ce6e7e55120fb077fbed0247304402206dafd502aac9d4d542416664063533b1fed1d16877f0295740e1b09ec2abe05102200be28d9dd76863796addef4b9595aad23b2e9363ac2d64f75c21beb0e2ade5df0121039d61d62dcd048d3f8550d22eb90b4af908db60231d117aeede04e7bc11907bfa00000000"
  ],
  "Fee": 1600,
  "Signatures": [
    {
      "R": "89a89aaf3fec97ac9ffa91cdff59829f0cb3ef852a468153e2c0e2b473466d2e",
      "S": "72902bb923ef016ac52e941ced78f816bf27991c2b73211e227db27ec200bc0a"
    },
    {
      "R": "3747f5ee31334b11ebac6a2a156b1584605de8d91a654cd703f9c84386349974",
      "S": "2059d680211776f93c25636266b02e059ed9fcc6209f7d3d9926c49a0d8750ed"
    }
  ],
  "ExpectedSigHashes": [
    "5f63db656f65606985eb6c543e96be9af11aa3cf90e30a8a00cef6926ec7ce2b",
    "87c6e010895dc4df5d7f9d247f9a53c776ba4fd72049006fec7c6d2be2c3da78"
  ],
  "ExpectedSweepTransaction": "01000000000102bc187be612bc3db8cfcdec56b75e9bc0262ab6eacfe27cc1a699bacd53e3d07400000000c948304502210089a89aaf3fec97ac9ffa91cdff59829f0cb3ef852a468153e2c0e2b473466d2e022072902bb923ef016ac52e941ced78f816bf27991c2b73211e227db27ec200bc0a012103989d253b17a6a0f41838b84ff0d20e8898f9d7b1a98f2564da4cc29dcf8581d94c5c14934b98637ca318a4d6e7ca6ffd1690b8e77df6377508f9f0c90d000395237576a9148db50eb52063ea9d98b3eac91489a90f738986f68763ac6776a914e257eccafbc07c381642ce6e7e55120fb077fbed8804e0250162b175ac68ffffffffdc557e737b6688c5712649b86f7757a722dc3d42786f23b2fa826394dfec545c0000000000ffffffff01488a0000000000001600148db50eb52063ea9d98b3eac91489a90f738986f6000347304402203747f5ee31334b11ebac6a2a156b1584605de8d91a654cd703f9c8438634997402202059d680211776f93c25636266b02e059ed9fcc6209f7d3d9926c49a0d8750ed012103989d253b17a6a0f41838b84ff0d20e8898f9d7b1a98f2564da4cc29dcf8581d95c14934b98637ca318a4d6e7ca6ffd1690b8e77df6377508f9f0c90d000395237576a9148db50eb52063ea9d98b3eac91489a90f738986f68763ac6776a914e257eccafbc07c381642ce6e7e55120fb077fbed8804e0250162b175ac6800000000",
  "ExpectedSweepTransactionHash": "f8eaf242a55ea15e602f9f990e33f67f99dfbe25d1802bbde63cc1caabf99668",
  "ExpectedSweepTransactionWitnessHash": "6673279c21b65a684824bbf31db31dc7450823f5f5d19a38997feee51e949bdf"
}
